:10041A005468652053797374656D20697320527529
:10042A006E6E696E672E2E2E0D0A0057656C636F0D
:10043A006D6520746F202E2E2E0D0A00C0F9A4B00F
:0E044A00999282F880908880C6C0868EBF7F0F
:10054600011201010900010D00010E00010F000159
:0E0556001000010B00010800011100010C0053
:04059C007FC07ED4CA
:1005A000EF1FAC0670011E4C70F6EF1FAC06700119
:0505B0001E4C70F62254
:1004CF0075F00A8493FF1D7C001205827FF47E0174
:1004DF001204F2900456E41D93FF7C001205827FF4
:0304EF00F47E0197
:0B04F200EF1FAC0670011E4C70F622DC
:100565007F607EEA1205777F607EEA1205777F60FD
:020575007EEA1C
:0B057700EF1FAC0670011E4C70F62256
:07049500AE077580FF7F0632
:10049C00EF24FB601314601914601F24037023E510
:1004AC00A0541F4480F5A022E5A0541F44A0F5A041
:1004BC0022E5A0541F44C0F5A022E5A0541F44E03F
:0304CC00F5A02276
:07066A00D288D2A8D2AF2212
:0E064300758901758CFF758A9BD2A9D2AF22F2
:1005CE00758920758DFD758BFDD28E759850E4F56D
:0605DE008ED2ACD2AF2268
:0300230002065181
:09065100309805859910C2983219
:08065A008F993099FDC299222D
:1004FD008B148A158916AB14AA15A9161205B560A9
:10050D00130516E5167002051514F91205B5FF123F
:05051D00065A80E222F5
:10045800E510603854F02450601424F06022242001
:10046800702AE510F444F0FFE580440F800DE51094
:10047800F4C454F0440FFFE58044F05FF580800930
:0D0488007BFF7A04791A1204FDE4F51022BE
:03000B00020522C9
:10052200C0E0C0D0758CFF758A9B050BE50BB50842
:1005320004D280800AE50B64647004C280F50BD09B
:04054200D0D0E03203
:100620007F0412049CC280120573D2807F607EEA30
:0306300002057749
:03000300020006F2
:04000600751101323D
:10000E00E5116401700AC287120565120565D28773
:04001E00E4F51122D2
:03066200FD7F0415
:050665008F178D8022BB
:10058200120495AF05A8077401088002C333D8FC92
:0A059200F5807F0712049C8E802282
:0705E400E51390044693FFAC
:0D05EB001204957580010F12049C8E802271
:1002E300900448E493FFE4FDFC1204EB900446E41D
:1002F3000D1204E7900448E493FF0D1204E9E4931C
:10030300FF0D1204E9900456E493FF0D1204E9E48F
:1003130093FF0D1204E9E51275F00A8490044693E5
:10032300FF0D1204E9E51275F00A84E5F093FF0D61
:0C0333007C001205827FF47E010204F2BF
:10033F0020B0117F647E0012057720B007C2803095
:10034F00B0FDD28020B1117F647E0012057720B1FD
:10035F0007C28130B1FDD28120B2117F647E0012BD
:10036F00057720B207C28230B2FDD28220B3117F4F
:10037F00647E0012057720B307C28330B3FDD283AA
:01038F00224B
:1001210020B0257F647E0012057720B01BAF097EC9
:1001310000EF7007C280750901800AEF64014E70FB
:1001410004D280F50930B0FD20B1257F647E001214
:10015100057720B11BAF097E00EF7007C2817509D9
:1001610002800AEF64024E7004D281F50930B1FDBC
:1001710020B2297F647E0012057720B21FAF097E6D
:1001810000EF64017009C28230B2FDD282800DEFAE
:1001910064024E7007C28430B2FDD28420B3287F3E
:1001A100647E0012057720B31EAF097E00EF640163
:1001B1007008C28330B3FDD28322EF64024E700710
:0801C100C28530B3FDD2852296
:1005F800AB07AA06EB1BAE0270011A4E6005120289
:04060800E380F12278
:1001C900E4FBEBC39403748094805014E412066238
:1001D90012059C7DFF7F0412066512059C0B80E2C7
:1001E9007B01EBD39408748094805018A80374FFA2
:1001F900088002C333D8FC1206627F607EEA1205CA
:10020900A00B80DE7D107F0512066512059CE4FDBA
:100219007F051206657B01EBD394087480948050A6
:100229001CA80374FF088002C333D8FCF4FD7F04C3
:100239001206657F607EEA1205A00B80DA7D407F99
:0E0249000512066512059CE4FD7F05020665A0
:10002600C2B0D2B3D2B2D2B1D2B4D2B5D2C2D2C495
:1000360020C40820C42AE4F51380F820C20A20C28E
:100046000575130180F8801820B50A20B5057513CB
:100056000280F8800B20B40B20B40575130380F8DA
:100066001205E4C2B1D2B3D2B2D2B0D2B4D2B5D2B2
:10007600C2D2C420C40820C42475130480F820C248
:100086000830C2FD751305801420B50830B5FD751E
:100096001306800920B40930B4FD7513071205E470
:1000A600C2B2D2B3D2B0D2B1D2B4D2B5D2C2D2C415
:1000B60020C40830C4FD751308801F20C20830C252
:1000C600FD751309801420B50830B5FD75130A8037
:1000D6000920B40930B4FD75130B1205E4C2B3D27E
:1000E600B0D2B2D2B1D2B4D2B5D2C2D2C420C40830
:1000F60030C4FD75130C801F20C20830C2FD751375
:100106000D801420B50830B5FD75130E800920B496
:0B0116000930B4FD75130F1205E42240
:100633007F0512049CE4F5801F12049C7580FF2241
:10039000E50F75F00A84E5F090044693FF7D07129F
:1003A00004E9E50F1204CFE50E75F00A84E5F0903C
:1003B00004461204E6E50E1204CFE50D9004461241
:1003C00004E6E50D75F00A8493FFE41DFC12058236
:0703D0007FF47E010204F23C
:1003D70020B03F7F647E0012057720B035E50C140E
:1003E700601614601B14602024037023C280D28C13
:1003F70075080A750C018017750832750C02800F95
:1004070075085A750C038007D280C28CE4F50C304E
:03041700B0FD2213
:10060C001206331205CE7BFF7A0479351204FD12E3
:04061C00045880FB03
:03000000020257A2
:0C025700787FE4F6D8FD75811702029E46
:1005B500BB010689828A83E0225002E722BBFE0244
:0905C500E32289828A83E4932277
:1002630002060CE493A3F8E493A34003F68001F29F
:1002730008DFF48029E493A3F85407240CC8C3339C
:10028300C4540F4420C8834004F456800146F6DF6B
:10029300E4800B0102040810204080900546E47EB0
:1002A300019360BCA3FF543F30E509541FFEE49360
:1002B300A360010ECF54C025E060A840B8E493A327
:1002C300FAE493A3F8E493A3C8C582C8CAC583CA52
:1002D300F0A3C8C582C8CAC583CADFE9DEE780BE0A
:010564000096
:00000001FF
