:03000300010C04E9
:0C00F30000007E687D8BDDFEDEFCDFFA85
:0100FF0022DE
:0100070022D6
:1000D900E4F508F509F50AF50B5389F1758A9F7559
:0A00E9008C15D2AFD2A9D28C80FE94
:03000B0002009A56
:10009A00C0E0C0D075D000C005C006C007758A9FF1
:1000AA00758C15E5A0541F4480F5A07580F053A007
:1000BA001F7F011200F3E5A0541F4480F5A075804C
:0F00CA00FF53A01FD007D006D005D0D0D0E03212
:0300000002000EED
:0C000E00787FE4F6D8FD75810C020055E7
:10001A000200D9E493A3F8E493A34003F68001F223
:10002A0008DFF48029E493A3F85407240CC8C333E7
:10003A00C4540F4420C8834004F456800146F6DFB6
:10004A00E4800B0102040810204080900003E47E43
:10005A00019360BCA3FF543F30E509541FFEE493AB
:10006A00A360010ECF54C025E060A840B8E493A372
:10007A00FAE493A3F8E493A3C8C582C8CAC583CA9D
:10008A00F0A3C8C582C8CAC583CADFE9DEE780BE55
:0100060000F9
:00000001FF
